S01700004763634170706C69636174696F6E322E737265635A
S11300000C942A000C9447000C9447000C9447006D
S11300100C9447000C9447000C949E030C944700E6
S11300200C9447000C9447000C9447000C94470030
S11300300C9447000C9447000C9447000C94470020
S11300400C9447000C9447000C9447000C94470010
S11300500C94470011241FBECFE5D8E0DEBFCDBF0E
S113006010E0A0E6B0E0EEE7F8E002C005900D92E3
S1130070AE36B107D9F720E0AEE6B0E001C01D927C
S1130080AA37B207E1F70E9443020C943D040C9492
S113009000001F93CF93DF9300D000D01F92CDB701
S11300A0DEB75A836B837C838D83142F6A817B81B3
S11300B041E0812F0E948C026C817D8141E0812F7F
S11300C00E948C020F900F900F900F900F90DF9171
S11300D0CF911F9108951F93CF93DF9300D000D049
S11300E01F92CDB7DEB75A836B837C838D83142F25
S11300F06A817B8141E0812F0E9403036C817D81B1
S113010040E0812F0E9403030F900F900F900F90F7
S11301100F90DF91CF911F9108951F93CF93DF9399
S113012000D000D01F92CDB7DEB75A836B837C8397
S11301308D83142F6A817B8140E0812F0E94030309
S11301406C817D8141E0812F0E9403030F900F9009
S11301500F900F900F90DF91CF911F9108951F93EF
S1130160CF93DF9300D000D01F92CDB7DEB75A8370
S11301706B837C838D83142F6A817B8140E0812F84
S11301800E9403036C817D8140E0812F0E94030360
S11301900F900F900F900F900F90DF91CF911F91C0
S11301A0089582E00E94D50385E00E94DE0308954D
S11301B02FE1829FC00111246AE570E00E94E403EC
S11301C08EE3860F0E94E2030895962F672F41E085
S11301D0782F892F0E948C0281E00E947803089571
S11301E01F93CF93DF93C62F172FD82F40E0672F8D
S11301F0782F8C2F0E94030385E08A95F1F7000085
S113020041E0612F7D2F8C2F0E9403038AE18A95A0
S1130210F1F700C040E0612F7D2F8C2F0E94030373
S11302200E948E039C01ACEFB5E80E941A0420E002
S113023034E244EF50E00E94F803C901DF91CF910A
S11302401F910895409168005091690060916A007F
S113025070916B0080916C000E946B004091630070
S11302605091640060916500709166008091670010
S11302700E946B000895409168005091690060915C
S11302806A0070916B0080916C000E948D00409117
S113029063005091640060916500709166008091E4
S11302A067000E948D000895409168005091690094
S11302B060916A0070916B0080916C000E946B00E9
S11302C040916300509164006091650070916600F4
S11302D0809167000E948D000895409168005091BC
S11302E0690060916A0070916B0080916C000E94BB
S11302F08D0040916300509164006091650070919D
S11303006600809167000E946B0008954091680028
S11303105091690060916A0070916B0080916C004B
S11303200E94AF00409163005091640060916500A9
S113033070916600809167000E94AF000895CF938A
S1130340DF930E94860110927300109272008AE576
S113035090E090937500809374002FEF80E792E013
S1130360215080409040E1F700C00000C0E0D0E0A0
S11303701FC08C2F0E94D8006091600070916100B2
S1130380809162000E94F000429758F0D09375006B
S1130390C093740081E090E09093730080937200A6
S11303A00AC08FE295E70197F1F700C0000021969B
S11303B0C43BD105F4F28AE50E94D8009FEF20E700
S11303C082E0915020408040E1F700C0000080911D
S11303D072009091730081309105C1F58091740091
S11303E0909175008A35910564F016C00E945401FD
S11303F09FEF20E782E0915020408040E1F700C069
S113040000006091600070916100809162000E9420
S1130410F000429758F334C08B35910564F430C032
S11304200E946D019FEF20E782E0915020408040C0
S1130430E1F700C00000609160007091610080915C
S113044062000E94F000429758F31AC0892B61F0B1
S113045017C00E943B019FEF20E782E091502040AB
S11304608040E1F700C0000060916000709161007D
S1130470809162000E94F000429758F30E949F010D
S1130480DF91CF9108954091680050916900609187
S11304906A0070916B0080916C000E944900409149
S11304A063005091640060916500709166008091D2
S11304B067000E9449000E94D1008AE50E94D8008A
S11304C06091600070916100809162000E94E5007B
S11304D02FEF84E39CE0215080409040E1F700C07E
S11304E000006091600070916100809162000E9440
S11304F0F000429718F00E94220104C00E94860175
S11305000E949F012FEF80E792E0215080409040AD
S1130510E1F700C00000E5CF813019F130F08230FE
S1130520E1F1833009F454C0089541110CC02AB399
S113053081E090E002C0880F991F6A95E2F78095E8
S113054082238ABB0895413009F05CC02AB381E05C
S113055090E002C0880F991F6A95E2F7822B8ABB4C
S1130560089541110CC027B381E090E002C0880FC8
S1130570991F6A95E2F78095822387BB08954130DD
S113058009F040C027B381E090E002C0880F991FB2
S11305906A95E2F7822B87BB089541110CC024B3FE
S11305A081E090E002C0880F991F6A95E2F7809578
S11305B0822384BB0895413029F524B381E090E07F
S11305C002C0880F991F6A95E2F7822B84BB0895B5
S11305D041110CC021B381E090E002C0880F991F43
S11305E06A95E2F78095822381BB0895413051F4E6
S11305F021B381E090E002C0880F991F6A95E2F769
S1130600822B81BB0895813011F130F08230D1F119
S1130610833009F452C00895413059F42BB381E07A
S113062090E002C0880F991F6A95E2F7822B8BBB7A
S1130630089541115CC02BB381E090E002C0880FA3
S1130640991F6A95E2F7809582238BBB0895413008
S113065059F428B381E090E002C0880F991F6A958D
S1130660E2F7822B88BB0895411141C028B381E091
S113067090E002C0880F991F6A95E2F78095822363
S113068088BB0895413059F425B381E090E002C05D
S1130690880F991F6A95E2F7822B85BB0895411153
S11306A026C025B381E090E002C0880F991F6A95A7
S11306B0E2F78095822385BB0895413059F422B333
S11306C081E090E002C0880F991F6A95E2F7822BBF
S11306D082BB089541110BC022B381E090E002C0B7
S11306E0880F991F6A95E2F78095822382BB08954B
S11306F091B39F7B91BB9EB591609EBD99B790626B
S113070099BF813021F48EB580648EBD05C08111FE
S113071003C08EB58F7B8EBD789408958091700050
S11307209091710080FD09C0E6E7F0E08281938139
S113073020813181821B930B089508951F920F929B
S11307400FB60F9211242F938F939F93EF93FF93E0
S1130750E0916E00F0916F0086B597B5EE0FFF1F24
S1130760EA58FF4F918380838091700090917100CB
S11307700196909371008093700080916E00909127
S11307806F0021E0822790936F0080936E009EB5E6
S113079080E489278EBDFF91EF919F918F912F91D6
S11307A00F900FBE0F901F901895823031F485B5CD
S11307B0886685BD81B3806881BB089595B5892B12
S11307C085BD089583BD089597FB072E16F4009404
S11307D007D077FD09D00E94290407FC05D03EF418
S11307E0909581959F4F0895709561957F4F0895D9
S11307F0A1E21A2EAA1BBB1BFD010DC0AA1FBB1F21
S1130800EE1FFF1FA217B307E407F50720F0A21B92
S1130810B30BE40BF50B661F771F881F991F1A94FF
S113082069F760957095809590959B01AC01BD0129
S1130830CF010895A29FB001B39FC001A39F700D83
S1130840811D1124911DB29F700D811D1124911DD4
S11308500895AA1BBB1B51E107C0AA1FBB1FA61703
S1130860B70710F0A61BB70B881F991F5A95A9F755
S111087080959095BC01CD010895F894FFCFBA
S111087E03050000060007000004000500004A
S9030000FC
